:020000040000FA
:0400000080312528FE
:100008007E1480310B1F09280A2823282E00991CEA
:100018000E280F281A288F1C122813281A282000A7
:100028003E088A003D080A0080312328191C1D2833
:100038001E2823280F1C21282228232813287E1055
:1000480009008031272820308400003085001F30C7
:100058008331F02380317E102000803133288331B2
:10006800972380318B170B17A2302000CF004F0841
:10007800CB0050308131692180312000D0005008F8
:10008800D20055305206031D4A284B2869288C1483
:1000980007302000D0005830CF005930890B522843
:1000A800CF0B5228D00B5228003220008C1007307A
:1000B8002000D0005830CF005930890B6128CF0B71
:1000C8006128D00B6128003286288C140230200069
:1000D800D0004530CF00A930890B7028CF0B70288D
:1000E800D00B7028003220008C1002302000D00085
:1000F8004530CF00A930890B7F28CF0B7F28D00B44
:100108007F2800328628803125288331FC238031DE
:10011800003A031990289128C1289E2884312A245E
:100128008031DD28843125248031DD2884311B2469
:100138008031DD2820002F08FA007A08F9000630FF
:10014800203E86008701413F8A00403F0A008031F7
:10015800FB00FC017C08003A0319B3289A287B08A5
:10016800013A03199A28033A03199228013A031904
:100178009628073A03199A289A2820003C10173025
:10018800203E86008701403F84008501810A0008DF
:1001980084313424803101302000B8020030B93B6A
:1001A80038083904031DD928DA28DC280630DD2868
:1001B8000330080084315A248031FA0020003708BF
:1001C800860087017A0881000130FA007A08B707AB
:1001D8000130B8020030B93B380839040319F52852
:1001E800F628FB2884313D24803105302329BC15AD
:1001F800052984310C24803123298431112480314C
:1002080023292C08FA007A08F90021088A00200816
:100218000A008131FB00FC017C08003A031915290A
:1002280001297B08013A03190129033A0319FD281A
:10023800013A0319FD28073A031901290129080081
:100248002000C500C601C60A3C192B292C2967299C
:100258004508C4004408B600BC103C153C100E30DC
:10026800C4004408BA00F430B4000130B500BC152D
:100278006830A0000430A100AC016830A20004304E
:10028800A300AD016830A4000430A500AE016830B9
:10029800A6000430A700AF016630A8000430A9000A
:1002A800B0013930C2000430C3008331F6238131F4
:1002B8008431512481318331A4238131843145240F
:1002C80081312000C601460808002000CD00CE017B
:1002D80020004D08813124218131003A0319752904
:1002E80076296C2939302000C7000330C8004E3009
:1002F800CC004C08C90083317B23813101302000B8
:10030800C2000030C3004B3083315B2381310030A1
:100318002000C700C800C901833189238131843195
:10032800022481318231E3228131013A03199D2966
:100338009E29962920004E08080020009601970162
:100348009801FD309100FF309200FF309300E730B4
:100358003E00CE00FF30C300FF30B800E501C40105
:10036800B9011830CF00BA01C501D001FF30BB0078
:10037800FF30C600FF30D100FF30BC00FF30C7009F
:10038800FF30D2000830E80013303D00C5001430BB
:100398003E00A3001530A40014303D00C60008003C
:1003A8002000BC15E429843120248131022A8431BB
:1003B800572481310330022A84311B248131022AD7
:1003C8002C08FA007A08F90021088A0020080A0097
:1003D8008131FB00FC017C08003A0319F429E0296B
:1003E8007B08013A0319E029033A0319D729013A8E
:1003F8000319D729073A0319DB29E0290800200047
:100408003C100230FA007A08BB00122A84312024FA
:1004180082312E2A84311B2482312E2A2E08FA009A
:100428007A08F9000430203E86008701413F8A009F
:10043800403F0A008231FB00FC017C08003A0319A6
:10044800262A0E2A7B08023A03190A2A013A0319B6
:100458000A2A0E2A080084315424823120003C1CC8
:10046800362A372A442A8331FC238231003A031979
:100478003E2A3F2A442A0F302000BF003F08BA0016
:1004880020003A08BF00C001BF35C00DA7303F07A4
:1004980084008230403D8500013F8A00003F0A0009
:1004A80082312000C1004108BA0008002000C600BF
:1004B800420843040319612A622A732A4635203EFA
:1004C800860087014208C03F4308C13F4408C50071
:1004D80046082C3E8600870145088100802A46355B
:1004E800203E860087016830C03F0430C13F46087F
:1004F8002C3E8600870181010800F4007008710411
:100508000319872A882A992A7435203E860087018C
:100518007008C03F7108C13F7208F30074082C3E90
:100528008600870173088100A62A7435203E86005C
:1005380087016830C03F0430C13F74082C3E8600F4
:100548008701810108002F340434D0340334E134A6
:10055800033489340034DE340034E9340334D434C9
:1005680001342A34043425340434203404341B344C
:10057800043416340434113404340C340434073489
:100588000434033402342000C300C401C40ABC1874
:10059800CE2ACF2AE02ABC14C40143080319D52A5D
:1005A800D62AD92ABA01BA0ADD2A0230C20042087C
:1005B800BA00843148248231200044080800200011
:1005C800C301C30ABC18E92AEA2AFD2A3C11FF30F4
:1005D800C2004208B60084315124823184314B2450
:1005E800823184314E24823120003B08C200420807
:1005F800C30043080800790886008701403FF000DF
:10060800413FF1007908023E8600870101088331E5
:100618006B2382310030F500F600F7018331B123F6
:100628008231023008000130F0000030F100790812
:1006380083316B2383310030F500F600F7018331F5
:10064800B1238331043008000230F0000030F1009B
:10065800790883316B2383310030F500F600F70108
:100668008331B1238331023008000130F0000030BB
:10067800F100790883316B2383310030F500F600EF
:10068800F7018331B1238331023008000230F000D2
:100698000030F100790883316B2383310030F50095
:1006A800F600F7018331B1238331043008002000BC
:1006B800C500BC1D602B612B6A2B4508C40044088B
:1006C800B7004308B9004208B800BC110800F3009D
:1006D8002000BC1D702B712B7A2B7308F200720856
:1006E800B7007108B9007008B800BC1108002000F4
:1006F8004808C3004708C2004908CA004A08C4009D
:10070800003082315A228331080020004808C30093
:100718004708C2004908CA004A08C40002308231AA
:100728005A22833108008331D92383318331C72387
:1007380083318131A12183318331BE238331080084
:100748002300901AA82BA92BB02B8F0108309000FA
:10075800910103308D00901608007608F1007508A5
:10076800F0007708F8007808F20000308231812222
:1007780083310800623031008D008F019101023011
:1007880093009201080023008F0108309000910126
:1007980003308D009012080020003C140314360D1D
:1007A800843134248331053008002F0096019701E5
:1007B800980199019A019B01080020003C143635E4
:1007C8008431342483310330080020003C10843104
:1007D8005D24833104300800640080010131890BF5
:1007E800F12B003420004308BE004208BD00080079
:1007F8002300110E890C890C013908000030823160
:10080800C722843108002000BC10BB010E3008004C
:1008180084314124843109300800843141248431F1
:100828000A30080084313D248431053008008431C1
:10083800602484310030080084316324843101301D
:100848000800843163248431023008008431632431
:100858008431013008002000BC10BB010E300800B4
:10086800F000700823008C00080082312F228431A8
:100878000800230091121116080023009116111682
:1008880008002E00191408002300111408002E0077
:10089800191008002300901208002E000F100800FD
:1008A8002E000F1008002E000F14080023000C085B
:1008B80008002300911508002300111508002300E3
:0C08C80091140800053008000130080001
:020000040001F9
:0A000E00EC3FFF3F9F3FFF3FFF3F25
:00000001FF
