:020000040000FA
:0400000080312528FE
:100008007E1480310B1F09280A2823282E00991CEA
:100018000E280F281A288F1C122813281A282000A7
:100028003E088A003D080A0080312328191C1D2833
:100038001E2823280F1C21282228232813287E1055
:1000480009008031272820308400003085001F30C7
:100058008331DF2380317E1020008031CE28833128
:10006800EB238031003A03193A283B286B284828AB
:1000780084311924803187288431142480318728D9
:1000880084310A248031872820002F08FA007A0852
:10009800F9000630203E86008701413F8A00403F34
:1000A8000A008031FB00FC017C08003A03195D2836
:1000B80044287B08013A03194428033A03193C28C9
:1000C800013A03194028073A031944284428200014
:1000D8003C101730203E86008701403F8400850190
:1000E800810A000884312324803101302000B802BD
:1000F8000030B93B38083904031D83288428862832
:100108000630872803300800843149248031FA00FA
:1001180020003708860087017A0881000130FA003C
:100128007A08B7070130B8020030B93B38083904FB
:1001380003199F28A028A52884312C248031053054
:10014800CD28BC15AF288331FB238031CD288431DD
:1001580000248031CD282C08FA007A08F9002108FB
:100168008A0020080A008031FB00FC017C08003A64
:100178000319BF28AB287B08013A0319AB28033AB7
:100188000319A728013A0319A728073A0319AB2826
:10019800AB2808008331862380318B170B170F306B
:1001A8002000CF004F08D1002000CB015030813112
:1001B8005821803120005106031DE328E428022934
:1001C8008C1407302000D0005830CF005930890BEC
:1001D800EB28CF0BEB28D00BEB28003220008C103B
:1001E80002302000D0004530CF00A930890BFA2812
:1001F800CF0BFA28D00BFA280032D8288C140230FA
:100208002000D0004530CF00A930890B0929CF0B39
:100218000929D00B09290032F2288031252820002D
:10022800C500C601C60A3C191A291B2956294508C2
:10023800C4004408B600BC103C153C100E30C40085
:100248004408BA00F430B4000130B500BC1557308A
:10025800A0000430A100AC015730A2000430A30074
:10026800AD015730A4000430A500AE015730A600F8
:100278000430A700AF015530A8000430A900B00130
:100288002830C2000430C3008331E5238131843132
:100298004024813183319323813184313424813165
:1002A8002000C601460808002000CD00CE0120002D
:1002B8004D08813113218131003A031964296529D8
:1002C8005B2928302000C7000330C8004E30CC001E
:1002D8004C08C90083316A23813101302000C200F3
:1002E8000030C3004B3083314A2381310030200075
:1002F800C700C800C9018331782381318331F123D4
:1003080081318231D2228131013A03198C298D2918
:10031800852920004E0808002000960197019801C1
:10032800FD309100FF309200FF309300E7303E002F
:10033800CE00FF30C300FF30B800E501C401B901A9
:100348001830CF00BA01C501D001FF30BB00FF3023
:10035800C600FF30D100FF30BC00FF30C700FF30BF
:10036800D2000830E80013303D00C50014303E00CC
:10037800A3001530A40014303D00C600080020007A
:10038800BC15D32984310F248131F12984314624C5
:1003980081310330F12984310A248131F1292C0873
:1003A800FA007A08F90021088A0020080A00813139
:1003B800FB00FC017C08003A0319E329CF297B08DC
:1003C800013A0319CF29033A0319C629013A031937
:1003D800C629073A0319CA29CF29080020003C106A
:1003E8000230FA007A08BB00012A84310F248131D7
:1003F8001D2A84310A2481311D2A2E08FA007A0820
:10040800F9000430203E86008701413F8A00403FC2
:100418000A008231FB00FC017C08003A0319152A06
:10042800FD297B08023A0319F929013A0319F92928
:10043800FD29080084314324823120003C1C252AF0
:10044800262A332A8331EB238231003A03192D2AD5
:100458002E2A332A0F302000BF003F08BA002000A0
:100468003A08BF00C001BF35C00D96303F07840071
:100478008230403D8500013F8A00003F0A008231FA
:100488002000C1004108BA0008002000C600420848
:1004980043040319502A512A622A4635203E860011
:1004A80087014208C03F4308C13F4408C5004608C9
:1004B8002C3E86008701450881006F2A4635203E7C
:1004C800860087015730C03F0430C13F46082C3EA4
:1004D8008600870181010800F4007008710403197F
:1004E800762A772A882A7435203E86008701700884
:1004F800C03F7108C13F7208F30074082C3E8600A3
:10050800870173088100952A7435203E860087018B
:100518005730C03F0430C13F74082C3E8600870125
:10052800810108001E340434BF340334D03403344A
:100538003334003488340034D8340334C3340134B9
:1005480019340434143404340F3404340A340434AD
:100558000534043400340434FB340334F6340334EF
:10056800F23401342000C300C401C40ABC18BD2AF7
:10057800BE2ACF2ABC14C40143080319C42AC52AB9
:10058800C82ABA01BA0ACC2A0230C2004208BA0004
:100598008431372482312000440808002000C30138
:1005A800C30ABC18D82AD92AEC2A3C11FF30C20049
:1005B8004208B60084314024823184313A248231A1
:1005C80084313D24823120003B08C2004208C30028
:1005D80043080800790886008701403FF000413F42
:1005E800F1007908023E86008701010883315A2309
:1005F80082310030F500F600F7018331A023823103
:10060800023008000130F0000030F1007908833131
:100618005A2383310030F500F600F7018331A02317
:100628008331043008000230F0000030F10079080E
:1006380083315A2383310030F500F600F701833106
:10064800A0238331023008000130F0000030F100AF
:10065800790883315A2383310030F500F600F70119
:100668008331A0238331023008000230F0000030CB
:10067800F100790883315A2383310030F500F60000
:10068800F7018331A0238331043008002000C5001E
:10069800BC1D4F2B502B592B4508C4004408B700EC
:1006A8004308B9004208B800BC110800F300200054
:1006B800BC1D5F2B602B692B7308F2007208B70012
:1006C8007108B9007008B800BC110800200048087B
:1006D800C3004708C2004908CA004A08C4000030DD
:1006E800823149228331080020004808C3004708A6
:1006F800C2004908CA004A08C400023082314922AF
:10070800833108008331C82383318331B623833191
:100718008131902183318331AD2383310800230057
:10072800901A972B982B9F2B8F01083090009101DE
:1007380003308D00901608007608F1007508F00067
:100748007708F8007808F20000308231702283318F
:100758000800623031008D008F0191010230930052
:100768009201080023008F010830900091010330A6
:100778008D009012080020003C140314360D8431BB
:1007880023248331053008002F0096019701980132
:1007980099019A019B01080020003C1436358431E8
:1007A800232483310330080020003C1084314C247A
:1007B800833104300800640080010131890BE02B8B
:1007C800003420004308BE004208BD000800230092
:1007D800110E890C890C0139080000308231B622CB
:1007E800833108002000BC10BB010E3008008431A2
:1007F80030248331093008008431302484310A30B0
:10080800080084312C2484310530080084314F24B9
:1008180084310030080084315224843101300800CA
:1008280084315224843102300800843152248431C6
:10083800013008002000BC10BB010E300800F00099
:10084800700823008C00080082311E2284310800C1
:1008580023009112111608002300911611160800A2
:100868002E00191408002300111408002E00191076
:1008780008002300901208002E000F1008002E0018
:100888000F1008002E000F14080023000C080800A1
:100898002300911508002300111508002300911466
:0A08A80008000530080001300800C8
:020000040001F9
:0A000E00EC3FFF3F9F3FFF3FFF3F25
:00000001FF
